{
  "contractName": "ChallengeList",
  "abi": [
    {
      "constant": true,
      "inputs": [
        {
          "name": "",
          "type": "uint256"
        }
      ],
      "name": "challenges",
      "outputs": [
        {
          "name": "id",
          "type": "uint256"
        },
        {
          "name": "content",
          "type": "string"
        },
        {
          "name": "completed",
          "type": "bool"
        }
      ],
      "payable": false,
      "stateMutability": "view",
      "type": "function"
    },
    {
      "constant": true,
      "inputs": [],
      "name": "challengeCount",
      "outputs": [
        {
          "name": "",
          "type": "uint256"
        }
      ],
      "payable": false,
      "stateMutability": "view",
      "type": "function"
    },
    {
      "inputs": [],
      "payable": false,
      "stateMutability": "nonpayable",
      "type": "constructor"
    },
    {
      "constant": false,
      "inputs": [
        {
          "name": "_content",
          "type": "string"
        }
      ],
      "name": "createChallenge",
      "outputs": [],
      "payable": false,
      "stateMutability": "nonpayable",
      "type": "function"
    }
  ],
  "bytecode": "0x60806040526000805534801561001457600080fd5b5061003c6040518060600160405280602781526020016104ee6027913961004160201b60201c565b610148565b600080546001908101808355604080516060810182528281526020808201878152828401879052938652848152919094208451815591518051929361008e939085019291909101906100ad565b50604091909101516002909101805460ff191691151591909117905550565b828054600181600116156101000203166002900490600052602060002090601f016020900481019282601f106100ee57805160ff191683800117855561011b565b8280016001018555821561011b579182015b8281111561011b578251825591602001919060010190610100565b5061012792915061012b565b5090565b61014591905b808211156101275760008155600101610131565b90565b610397806101576000396000f3fe608060405234801561001057600080fd5b50600436106100415760003560e01c80636bf78c2f146100465780638f1d3776146100ee578063a2f0572514610195575b600080fd5b6100ec6004803603602081101561005c57600080fd5b81019060208101813564010000000081111561007757600080fd5b82018360208201111561008957600080fd5b803590602001918460018302840111640100000000831117156100ab57600080fd5b91908080601f0160208091040260200160405190810160405280939291908181526020018383808284376000920191909152509295506101af945050505050565b005b61010b6004803603602081101561010457600080fd5b503561021b565b604051808481526020018060200183151515158152602001828103825284818151815260200191508051906020019080838360005b83811015610158578181015183820152602001610140565b50505050905090810190601f1680156101855780820380516001836020036101000a031916815260200191505b5094505050505060405180910390f35b61019d6102ca565b60408051918252519081900360200190f35b60008054600190810180835560408051606081018252828152602080820187815282840187905293865284815291909420845181559151805192936101fc939085019291909101906102d0565b50604091909101516002909101805460ff191691151591909117905550565b600160208181526000928352604092839020805481840180548651600296821615610100026000190190911695909504601f810185900485028601850190965285855290949193929091908301828280156102b75780601f1061028c576101008083540402835291602001916102b7565b820191906000526020600020905b81548152906001019060200180831161029a57829003601f168201915b5050506002909301549192505060ff1683565b60005481565b828054600181600116156101000203166002900490600052602060002090601f016020900481019282601f1061031157805160ff191683800117855561033e565b8280016001018555821561033e579182015b8281111561033e578251825591602001919060010190610323565b5061034a92915061034e565b5090565b61036891905b8082111561034a5760008155600101610354565b9056fea165627a7a7230582048f0cb9d37253d221ebeae314e47b3e0089b26f5ae3dd44ad11430bf0a91111900295669736974207468652077656273697465206d696c6974617279636f696e636865636b2e636f6d",
  "source": "pragma solidity ^0.5.0;\n\ncontract ChallengeList {\n  uint public challengeCount = 0;\n\n  struct  Challenge {\n    uint id; // unsigned integer number cannot be negative\n    string content;\n    // Medallion Owner: billet\n    // ... unit/ organization not valuable peer to peer billet to billet more value\n    // future communication check up on the people you gave the medallion to\n    // make when needed\n    // Achievement Rank different coins different value\n    // EDIP -> id of the owner proof of rank\n    // Marine Corps Order -> approving\n    // who assigns the value... of each coin...\n    bool completed; // only gets allowed to turn true if password is correct\n  }\n\n  mapping(uint => Challenge) public challenges;\n\n  constructor() public {\n    createChallenge(\"Visit the website militarycoincheck.com\"); // activate your account\n  }\n\n  function createChallenge(string memory _content) public {\n    challengeCount ++;\n    challenges[challengeCount] = Challenge(challengeCount, _content, false);\n  }\n\n\n\n}",
  "sourcePath": "/Users/giru/concert_tokens/contracts/ChallengeList.sol",
  "compiler": {
    "name": "solc",
    "version": "0.5.8+commit.23d335f2.Emscripten.clang"
  },
  "schemaVersion": "3.0.11",
  "updatedAt": "2019-06-28T20:04:25.773Z",
  "devdoc": {
    "methods": {}
  },
  "userdoc": {
    "methods": {}
  }
}