{
  "contractName": "ChallengeList",
  "abi": [
    {
      "constant": true,
      "inputs": [],
      "name": "challengeCount",
      "outputs": [
        {
          "name": "",
          "type": "uint256"
        }
      ],
      "payable": false,
      "stateMutability": "view",
      "type": "function"
    }
  ],
  "bytecode": "0x608060405260008055348015601357600080fd5b506077806100226000396000f3fe6080604052348015600f57600080fd5b506004361060285760003560e01c8063a2f0572514602d575b600080fd5b60336045565b60408051918252519081900360200190f35b6000548156fea165627a7a72305820fe7caa4f757afb0702e7daa98660fffbd7dc388f3da6e6bbd9547ae40d0299530029",
  "source": "pragma solidity ^0.5.0;\n\ncontract ChallengeList {\n  uint public challengeCount = 0;\n}",
  "sourcePath": "/Users/giru/concert_tokens/contracts/ChallengeList.sol",
  "compiler": {
    "name": "solc",
    "version": "0.5.8+commit.23d335f2.Emscripten.clang"
  },
  "schemaVersion": "3.0.11",
  "updatedAt": "2019-06-28T17:24:17.751Z",
  "devdoc": {
    "methods": {}
  },
  "userdoc": {
    "methods": {}
  }
}