{
  "contractName": "Challenge",
  "abi": [
    {
      "constant": true,
      "inputs": [],
      "name": "challengeCount",
      "outputs": [
        {
          "name": "",
          "type": "uint256"
        }
      ],
      "payable": false,
      "stateMutability": "view",
      "type": "function"
    }
  ],
  "bytecode": "0x608060405260008055348015601357600080fd5b50607b806100226000396000f3fe6080604052348015600f57600080fd5b506004361060285760003560e01c8063a2f0572514602d575b600080fd5b60336049565b6040518082815260200191505060405180910390f35b6000548156fea165627a7a72305820d37b5e26ffed4f0c474b9d7b2a7eab26d592e903d85d70fbda27454d3edca0590029",
  "source": "pragma solidity ^0.5.0;\n\ncontract Challenge {\n  uint public challengeCount = 0;\n  \n}",
  "sourcePath": "/Users/giru/concert_tokens/contracts/Challenge.sol",
  "compiler": {
    "name": "solc",
    "version": "0.5.8+commit.23d335f2.Emscripten.clang"
  },
  "schemaVersion": "3.0.11",
  "updatedAt": "2019-06-28T17:05:14.473Z",
  "devdoc": {
    "methods": {}
  },
  "userdoc": {
    "methods": {}
  }
}