{
  "contractName": "ChallengeList",
  "abi": [
    {
      "constant": true,
      "inputs": [
        {
          "name": "",
          "type": "uint256"
        }
      ],
      "name": "challenges",
      "outputs": [
        {
          "name": "id",
          "type": "uint256"
        },
        {
          "name": "content",
          "type": "string"
        },
        {
          "name": "completed",
          "type": "bool"
        }
      ],
      "payable": false,
      "stateMutability": "view",
      "type": "function"
    },
    {
      "constant": true,
      "inputs": [],
      "name": "challengeCount",
      "outputs": [
        {
          "name": "",
          "type": "uint256"
        }
      ],
      "payable": false,
      "stateMutability": "view",
      "type": "function"
    },
    {
      "inputs": [],
      "payable": false,
      "stateMutability": "nonpayable",
      "type": "constructor"
    },
    {
      "anonymous": false,
      "inputs": [
        {
          "indexed": false,
          "name": "id",
          "type": "uint256"
        },
        {
          "indexed": false,
          "name": "content",
          "type": "string"
        },
        {
          "indexed": false,
          "name": "completed",
          "type": "bool"
        }
      ],
      "name": "ChallengeCreated",
      "type": "event"
    },
    {
      "anonymous": false,
      "inputs": [
        {
          "indexed": false,
          "name": "id",
          "type": "uint256"
        },
        {
          "indexed": false,
          "name": "completed",
          "type": "bool"
        }
      ],
      "name": "ChallengeComplated",
      "type": "event"
    },
    {
      "constant": false,
      "inputs": [
        {
          "name": "_content",
          "type": "string"
        }
      ],
      "name": "createChallenge",
      "outputs": [],
      "payable": false,
      "stateMutability": "nonpayable",
      "type": "function"
    },
    {
      "constant": false,
      "inputs": [
        {
          "name": "_id",
          "type": "uint256"
        }
      ],
      "name": "toggleCompleted",
      "outputs": [],
      "payable": false,
      "stateMutability": "nonpayable",
      "type": "function"
    }
  ],
  "bytecode": "0x60806040526000805534801561001457600080fd5b5061003c6040518060600160405280602781526020016108096027913961004160201b60201c565b610200565b600080546001908101808355604080516060810182528281526020808201878152828401879052938652848152919094208451815591518051929361008e93908501929190910190610165565b5060408201518160020160006101000a81548160ff0219169083151502179055509050507f70263e2d8c502159b1c248d7c806c57055182d8b436c4c27dc63f36db281e2a4600054826000604051808481526020018060200183151515158152602001828103825284818151815260200191508051906020019080838360005b8381101561012657818101518382015260200161010e565b50505050905090810190601f1680156101535780820380516001836020036101000a031916815260200191505b5094505050505060405180910390a150565b828054600181600116156101000203166002900490600052602060002090601f016020900481019282601f106101a657805160ff19168380011785556101d3565b828001600101855582156101d3579182015b828111156101d35782518255916020019190600101906101b8565b506101df9291506101e3565b5090565b6101fd91905b808211156101df57600081556001016101e9565b90565b6105fa8061020f6000396000f3fe608060405234801561001057600080fd5b506004361061004c5760003560e01c8063455f5024146100515780636bf78c2f146100705780638f1d377614610116578063a2f05725146101bd575b600080fd5b61006e6004803603602081101561006757600080fd5b50356101d7565b005b61006e6004803603602081101561008657600080fd5b8101906020810181356401000000008111156100a157600080fd5b8201836020820111156100b357600080fd5b803590602001918460018302840111640100000000831117156100d557600080fd5b91908080601f016020809104026020016040519081016040528093929190818152602001838380828437600092019190915250929550610337945050505050565b6101336004803603602081101561012c57600080fd5b503561045b565b604051808481526020018060200183151515158152602001828103825284818151815260200191508051906020019080838360005b83811015610180578181015183820152602001610168565b50505050905090810190601f1680156101ad5780820380516001836020036101000a031916815260200191505b5094505050505060405180910390f35b6101c561050a565b60408051918252519081900360200190f35b6101df610510565b60008281526001602081815260409283902083516060810185528154815281840180548651600296821615610100026000190190911695909504601f810185900485028601850190965285855290949193858401939092908301828280156102885780601f1061025d57610100808354040283529160200191610288565b820191906000526020600020905b81548152906001019060200180831161026b57829003601f168201915b50505091835250506002919091015460ff161515602091820152604080830180511590526000858152600180845291902083518155838301518051949550859491936102d993850192910190610533565b50604091820151600291909101805460ff1916911515919091179055818101518151848152901515602082015281517f63eb17df7fd3d0dcfa863845f1e4107bdb8c6100e7d84f1031a02acbbc71b9de929181900390910190a15050565b600080546001908101808355604080516060810182528281526020808201878152828401879052938652848152919094208451815591518051929361038493908501929190910190610533565b5060408201518160020160006101000a81548160ff0219169083151502179055509050507f70263e2d8c502159b1c248d7c806c57055182d8b436c4c27dc63f36db281e2a4600054826000604051808481526020018060200183151515158152602001828103825284818151815260200191508051906020019080838360005b8381101561041c578181015183820152602001610404565b50505050905090810190601f1680156104495780820380516001836020036101000a031916815260200191505b5094505050505060405180910390a150565b600160208181526000928352604092839020805481840180548651600296821615610100026000190190911695909504601f810185900485028601850190965285855290949193929091908301828280156104f75780601f106104cc576101008083540402835291602001916104f7565b820191906000526020600020905b8154815290600101906020018083116104da57829003601f168201915b5050506002909301549192505060ff1683565b60005481565b604051806060016040528060008152602001606081526020016000151581525090565b828054600181600116156101000203166002900490600052602060002090601f016020900481019282601f1061057457805160ff19168380011785556105a1565b828001600101855582156105a1579182015b828111156105a1578251825591602001919060010190610586565b506105ad9291506105b1565b5090565b6105cb91905b808211156105ad57600081556001016105b7565b9056fea165627a7a7230582080707d6b00c2bc23a95b4a0cee638e0a6f7c27c785e5f8ec72dbe0786d9692b600295669736974207468652077656273697465206d696c6974617279636f696e636865636b2e636f6d",
  "source": "pragma solidity ^0.5.0;\n\n/// @title Military Coin Check - Challenge Coins\n/// @author Jayce Azua\n/// @notice This contact is for internal use only. Only possible way to use this contract is by purchasing challenge coins\n/// @dev All function calls are currently implemented without side effects\n\ncontract ChallengeList {\n  uint public challengeCount = 0;\n\n  struct  Challenge {\n\n    uint id; // unsigned integer number cannot be negative\n    string content;\n    // Medallion Owner: billet\n    // ... unit/ organization not valuable peer to peer billet to billet more value\n    // future communication check up on the people you gave the medallion to\n    // make when needed\n    // Achievement Rank different coins different value\n    // EDIP -> id of the owner proof of rank\n    // Marine Corps Order -> approving\n    // who assigns the value... of each coin...\n    bool completed; // only gets allowed to turn true if password is correct\n  }\n\n  mapping(uint => Challenge) public challenges;\n\n\n  event ChallengeCreated(\n    uint id,\n    string content,\n    bool completed\n  );\n\n  event ChallengeComplated(\n    uint id,\n    bool completed\n  );\n\n  constructor() public {\n    createChallenge(\"Visit the website militarycoincheck.com\"); // activate your account\n  }\n    /// @author Jayce Azua\n    /// @notice creates a smart contract for the challenges and increments the count each time it is created\n    /// @dev simply increments the count of the challenges\n    /// @param _content the description of the challenge\n    /// @return nothing simply creates the challenge\n  function createChallenge(string memory _content) public {\n    challengeCount ++;\n    challenges[challengeCount] = Challenge(challengeCount, _content, false);\n    emit ChallengeCreated(challengeCount, _content, false);\n  }\n\n  function toggleCompleted(uint _id) public {\n    Challenge memory _challenge = challenges[_id];\n    _challenge.completed = !_challenge.completed;\n    challenges[_id] = _challenge;\n    // if challenge gets complered send a token\n    emit ChallengeComplated(_id, _challenge.completed);\n  }\n\n\n}",
  "sourcePath": "/Users/giru/concert_tokens/contracts/ChallengeList.sol",
  "compiler": {
    "name": "solc",
    "version": "0.5.8+commit.23d335f2.Emscripten.clang"
  },
  "schemaVersion": "3.0.11",
  "updatedAt": "2019-07-01T03:01:43.417Z",
  "devdoc": {
    "author": "Jayce Azua",
    "details": "All function calls are currently implemented without side effects",
    "methods": {
      "createChallenge(string)": {
        "author": "Jayce Azua",
        "details": "simply increments the count of the challenges",
        "params": {
          "_content": "the description of the challenge"
        },
        "return": "nothing simply creates the challenge"
      }
    },
    "title": "Military Coin Check - Challenge Coins"
  },
  "userdoc": {
    "methods": {
      "createChallenge(string)": {
        "notice": "creates a smart contract for the challenges and increments the count each time it is created"
      }
    },
    "notice": "This contact is for internal use only. Only possible way to use this contract is by purchasing challenge coins"
  }
}